:020000040800F2
:10000000002000209D020008D1000008D100000857
:1000100000000000000000000000000000000000E0
:10002000000000000000000000000000D1000008F7
:100030000000000000000000D1000008C10000081E
:10004000D1000008D1000008D1000008D10000084C
:10005000D1000008D1000008D1000008D10000083C
:10006000D1000008D1000008D1000008D10000082C
:10007000D1000008D1000008D1000008D10000081C
:10008000D1000008D1000008D1000008D10000080C
:10009000D1000008D1000008D1000008D1000008FC
:1000A000D1000008D1000008D1000008D1000008EC
:1000B000D1000008D1000008D1000008D1000008DC
:1000C00002480168491C01607047C04600000020DA
:1000D000014800210160FEE734040040F0B591B012
:1000E0000DA800F0F9F801210A02574803681343EC
:1000F0000360564B1A46193204681442FAD007229C
:10010000D4020568A54305608468514D254085608B
:100110008468A406640FFBD1446B0C434463446BB6
:10012000C46B4C4D2543C563C46B4B4D00262E60FC
:100130000F24AC62EB626E636823AB612962696174
:1001400081232B6005231B071C6A444D2540444C2A
:100150002C191C621C68434D2540434C2C191C6013
:10016000DC68402525438024A543DD603F4F3E6089
:100170008B23FB607E60BE600D233B603C4B3D4C9F
:100180005C6001969E601A60026E0A430266016E10
:100190008907FCD5384E3948306039483060062030
:1001A0007060F920B060F0680028FCD135483060FC
:1001B00002A82C2100F093FA344D3348046802A8B9
:1001C000214600F0A2F9F8690007400F0AD00E207E
:1001D0003862F869800600D5786A02A8214600F0E6
:1001E000A2F916E0F869800613D5786AC2B202A8AF
:1001F0000DA9234600F09DF900280AD0296800299E
:1002000007D10199224A11600028224800DC2248C7
:1002100028600DA8214600F04DF90F494863286871
:1002200000280DD0F96909060AD5194B19684A1C2E
:100230001A60405C002801D0B86201E00198286093
:1002400010483060B9E7C04600100240E7030000E4
:10025000F880FFFF0200020000040040FF00FFF0F2
:10026000001100010FCFFFFFA0200000004400405C
:1002700010E000E07F3E000000300040CCCC0000E9
:1002800055550000AAAA000000000020040000202C
:100290000800002003070008FE06000880B5094892
:1002A0000949814204D2094A08CA08C18142FBD3E4
:1002B00007480849814202D2002204C1FAE7FFF749
:1002C0000DFFC0460000002000000020900700083D
:1002D0000C000020000000200021016041608160CE
:1002E000C1607047F0B587B0154604460A7800270C
:1002F000002A0BD04B1C55480678B24208D15E1C30
:10030000401C1A78002A3346F6D100E04F483A469E
:10031000007882420BD1394638463A463B46E7736D
:10032000A373A28125606160A060012687E00020A0
:10033000474A042817D0135C0E5C401C9E42F8D03C
:100340000020444A072822D0135C0E5C401C9E42C9
:10035000F8D00020404A062837D0135C0E5C401CC1
:100360009E42F8D028E0081D069006A805A900F0D6
:1003700077F8002820D006980078411E88417D211A
:10038000C900059A00268A4218D8314617E0C81DD0
:10039000069006A805A900F063F800280CD006987E
:1003A0000278501E824105992C4BCE18C83300208C
:1003B0009E4240D303463FE0002640E0012108432F
:1003C0003DD1012300210846A9E7881D069006A813
:1003D00005A900F045F80026002830D00698411CF9
:1003E0000691007820282AD106A804A900F038F840
:1003F000002824D006980178481E81410391049872
:10040000164A0190801811461431012300268842B3
:10041000184600D330460290059882188A4200D3CD
:10042000334602990B4303990B4308D101990918EC
:100430000323002273E701231A4303D00646304604
:1004400007B0F0BD0223024669E7C046E606000891
:10045000EA060008EF060008F7060008EFD8FFFFDD
:10046000F0B581B00922D24303681C783A3C94422B
:1004700001D200221BE000240C601D78303D0122D7
:10048000092D14D8254600942646052D0ED05F1957
:100490007C1C04600A2474435E5DA619303E0E6025
:1004A0007C78303C6D1C0A2CEFD300E0009A10469B
:1004B00001B0F0BD10B50446807B032817D0022898
:1004C00003D001281BD1A0891DE02068081A6468A8
:1004D000214600F0EEF87D20C0006208914201D96B
:1004E000A21A611A4843114600F078F80BE0206820
:1004F000081A616800F0DDF8A068814201D300208D
:1005000001E07D20C00080B210BD026A002A02D145
:10051000426A002A06D0826A891AFB2902D3002186
:1005200001624162704701220023036242628162DC
:10053000704770B50446006A002802D1656A002D34
:1005400007D0A56A5D1BFB2D04D3002020626062EA
:1005500000E00020A36200250D2A23D00A2A10D132
:1005600000262654F543606A002807D10846214634
:100570001A46FFF7B7FE002800D001252662666202
:1005800010E05E21C94313467F3B8B4208D31F28EE
:1005900006D2616A002905D1411C2162225401E082
:1005A00001206062284670BD2021020C01D0103964
:1005B0001000020A01D008391000020901D00439E4
:1005C000100002A3185C081A7047C046000102021E
:1005D000030303030404040404040404F8B500261C
:1005E000002929D00446002826D00D460846FFF7EA
:1005F000DBFF07462046FFF7D7FF3A1A1F2A1BD812
:1006000001D1264618E0F9430818531C2146D94069
:100610001F2353409C40002200280BD0E30F4900C9
:10062000C918CB43EB1800D5491B64001443DA0FFB
:10063000401CF1E7660016433046F8BDF8B50026C9
:10064000002929D00446002826D00D460846FFF789
:10065000ABFF07462046FFF7A7FF3A1A1F2A1BD811
:1006600001D1264618E0F9430818531C2146D94009
:100670001F2353409C40002200280BD0E30F490069
:10068000C918CB43EB1800D5491B64001443DA0F9B
:10069000401CF1E7660016433046F8BD70B51446BD
:1006A0000D460646FFF7CAFF4543711B216070BD2A
:1006B000704700B581B06A46FFF7F0FF009901B0BE
:1006C00000BD80B50A46002100F001F880BD002A77
:1006D00004D0034619705B1C521EFBD1704780B5D5
:1006E000FFF7EFFF80BD4F464600534554200042C0
:1006F00052454154482000464C4153482000455241
:10070000520A004F4B0A00FFB8F9FF7FB0B0B0802B
:10071000CCF9FF7FB0AB108084FBFF7FB0088480F2
:10072000B8FBFF7FB0B0B080BCFBFF7FB0AB0680F2
:1007300030FDFF7FB0AB00807CFDFF7FB0B0A880B4
:10074000CAFDFF7FB0B0B080EAFDFF7FB0B0AA80E5
:1007500058FEFF7FB0B0B08084FEFF7FB0AB00805A
:100760003CFFFF7FB0B0AA8048FFFF7FB0B0B080F1
:1007700052FFFF7FB008848056FFFF7FB0B0B0808B
:100780005EFFFF7FB00884805EFFFF7F01000000F6
:00000001FF
